:020000040800F2
:10000000680A0020E10200083D1E00083F1E0008AB
:10001000431E0008471E00084B1E00080000000099
:100020000000000000000000000000004F1E00085B
:10003000511E000800000000531E0008F7090008C8
:10004000FB020008FB020008FB020008FB0200089C
:10005000FB020008FB020008FB020008FB0200088C
:10006000FB020008FB020008FB020008FB0200087C
:10007000FB020008FB020008FB020008FB0200086C
:10008000FB020008FB020008FB020008FB0200085C
:10009000FB020008FB020008FB020008FB0200084C
:1000A000FB020008FB020008FB020008FB0200083C
:1000B000FB0200087B0E0008FB020008FB020008A0
:1000C000FB020008FB020008FB020008FB0200081C
:1000D000FB0200082104000847050008FB02000895
:1000E000FB020008FB020008FB020008DFF80CD04E
:1000F00004F01EFA0048004729140008680A00208E
:100100000CB50020019000906C48006840F48030ED
:100110006A49086000BF6948006800F40030009038
:100120000198401C0190009818B90198B0F5A06F93
:10013000F1D16248006800F4003010B10120009055
:1001400001E0002000900098012843D15C4800683D
:1001500040F010005A4908600846006820F003008B
:1001600008600846006840F0020008605348406894
:10017000524948600846406848600846406840F474
:10018000806048600846406820F47C10486008465B
:10019000406840F4E81048600846006840F080700D
:1001A000086000BF4548006800F000700028F9D0E2
:1001B0004248406820F003004049486008464068D3
:1001C00040F00200486000BF3C48406800F00C006E
:1001D0000828F9D10CBD10B5FFF792FF10BD10B57E
:1001E0003648006840F0010034490860084640681D
:1001F000344908403149486008460068324908409F
:100200002E4908600846006820F4802008600846EF
:10021000406820F4FE0048604FF41F008860FFF73C
:10022000DAFF4FF000602949086010BD10B50021C9
:1002300000200022214B5B6803F00C0121B104294E
:1002400006D0082928D107E0214B224C236027E063
:100250001F4B204C236023E0184B5B6803F47010A5
:10026000164B5B6803F48032022303EB904022B903
:10027000194B4343174C23600DE0104B5B6803F4AC
:10028000003323B1144B4343124C236003E0104B63
:100290004343104C236003E00D4B0E4C236000BF22
:1002A00000BF064B5B68C3F303130C4CE15C094BC6
:1002B0001B68CB40074C236010BD000000100240BB
:1002C000002002400000FFF8FFFFF6FE08ED00E00E
:1002D00000127A000000002000093D000400002008
:1002E0000648804706480047FEE7FEE7FEE7FEE7D0
:1002F000FEE7FEE7FEE7FEE7FEE7FEE7DF010008B8
:10030000ED00000808B525208DF8000001208DF8CB
:10031000010007208DF8020001208DF803006846D7
:1003200001F09DFD08BD10B586B00446012144F2E0
:10033000040002F019F94FF40070ADF81400182011
:100340008DF8170003208DF8160005A9984801F0D4
:100350004FFE4FF48060ADF8140004208DF81700B4
:1003600005A9934801F044FE01940020ADF808006F
:10037000ADF80A00ADF80C00ADF810000C20ADF897
:100380000E0001A98B4803F0A4F8002240F2277167
:10039000884803F036F9012240F22551854803F0E0
:1003A00030F94021834803F008FA0121814803F025
:1003B0001CF9FFF7A7FF06B010BD10B50446214693
:1003C0007C4803F07FF900BF7A48008800F0800085
:1003D0000028F9D0784801780078401C764A1070DF
:1003E00076484454012240F22771724803F009F91B
:1003F00010BD10B504460FE020780D2802D1FFF79C
:10040000DCFF08E020780A2802D1FFF7D6FF02E0DF
:100410002078FFF7D2FF641C20780028ECD110BDB3
:1004200010B540F22771634803F0D0F9E0B1644899
:1004300002780078401C624B18706048815C5D480F
:1004400003F040F95E4800785B490978884205D19D
:10045000002240F22771574803F0D3F840F2277189
:10046000544803F0DDF910E040F22551514803F003
:10047000ADF950B14F49091D0988C8B200F01AFC06
:1004800040F225514B4803F0CBF94FF458714948DD
:1004900003F0C6F910BD08B526208DF80000012034
:1004A0008DF8010003208DF8020001208DF8030073
:1004B000684601F0D4FC08BD10B586B004460121A1
:1004C000404802F05EF80420ADF8140018208DF8C2
:1004D000170003208DF8160005A9354801F088FDA6
:1004E0000820ADF8140004208DF8170005A9304845
:1004F00001F07EFD01940020ADF80800ADF80A007F
:10050000ADF80C00ADF810000C20ADF80E0001A9FC
:100510002D4802F0DEFF002240F227712A4803F046
:1005200070F84021284803F048F9012240F2255193
:10053000254803F066F80121234803F056F8FFF739
:10054000AAFF06B010BD10B540F227711E4803F097
:100550003DF9E0B11D4802780078401C1B4B187033
:100560001B48815C184803F0ADF840F2277116482B
:1005700003F056F91548007816490978884215D1D4
:10058000002240F22771104803F03BF80EE040F2E1
:1005900025510D4803F01AF940B10B4803F096F8C5
:1005A000C4B240F22551084803F03AF910BD0000EA
:1005B000000801400038014015000020940100208F
:1005C0001400002004000200004400401600002037
:1005D0008E0300201700002030B589B005460C4678
:1005E0000121042001F0CDFF0121082001F0BCFF12
:1005F0004020ADF8200018208DF8230003208DF84E
:10060000220008A93D4801F0F3FC8020ADF820004D
:1006100018208DF8230003208DF8220008A9374800
:1006200001F0E6FC4FF48070ADF8200018208DF842
:10063000230003208DF8220008A9304801F0D8FCDF
:100640004FF40070ADF8200018208DF8230003202F
:100650008DF8220008A9294801F0CAFCADF818500D
:10066000ADF814400020ADF81A00ADF8160005A949
:10067000234802F0B1F86020ADF804000120ADF885
:1006800006000020ADF80C0001A91D4802F023F976
:100690006020ADF804000120ADF806000020ADF8A0
:1006A0000C0001A9164802F016F96020ADF804000C
:1006B0000120ADF806000020ADF80C0001A910489B
:1006C00002F056F908210E4802F028FD6020ADF82E
:1006D00004000120ADF806000020ADF80C0001A9CF
:1006E000074802F090F90821054802F020FD012199
:1006F000034802F0CDFB09B030BD0000000C014002
:100700000008004008B501210C2001F02DFF202039
:10071000ADF8000010208DF8030003208DF80200D2
:100720006946614801F064FC20215F4801F00DFD3D
:100730002020ADF8000069465B4801F059FC2021FB
:10074000594801F002FD4020ADF8000010208DF85E
:10075000030003208DF802006946534801F048FC6D
:100760004021514801F0F1FC4020ADF800006946FD
:100770004D4801F03DFC40214B4801F0E6FC802053
:10078000ADF8000010208DF8030003208DF8020062
:100790006946454801F02CFC8021434801F0D5FC16
:1007A0008020ADF8000069463F4801F021FC80211F
:1007B0003D4801F0CAFC4FF48070ADF800001020F5
:1007C0008DF8030003208DF802006946364801F0D9
:1007D0000FFC4FF48071344801F0B7FC4FF4807087
:1007E000ADF800006946304801F002FC4FF480711A
:1007F0002D4801F0AAFC4FF40070ADF80000102065
:100800008DF8030003208DF802006946264801F0A8
:10081000EFFB4FF40071244801F097FC4FF4007097
:10082000ADF800006946204801F0E2FB4FF400718A
:100830001D4801F08AFC0220ADF8000010208DF860
:10084000030003208DF802006946184801F0D0FB30
:100850000221164801F079FC0220ADF8000069463B
:10086000124801F0C5FB0221104801F06EFC042083
:10087000ADF8000010208DF8030003208DF8020071
:1008800069460A4801F0B4FB0421084801F05DFC08
:100890000420ADF800006946044801F0A9FB0421DA
:1008A000024801F052FC08BD000C01400008014064
:1008B00010B56FF0040001F01CFB2E4800682E49B3
:1008C000B0FBF1F02D4908700846007800EB4001BC
:1008D000C1EBC0104FF6FF7101EAC0002849088043
:1008E00010BD0146254A12784A434FF0E0235A6171
:1008F00000229A611A46126942F001021A6100BF91
:100900004FF0E022106900F001021AB100F48032C9
:10091000002AF5D04FF0E022126922F001024FF0D8
:10092000E0231A6100229A6170470146144A128836
:100930004A434FF0E0235A6100229A611A46126935
:1009400042F001021A6100BF4FF0E022106900F08E
:1009500001021AB100F48032002AF5D04FF0E022F3
:10096000126922F001024FF0E0231A6100229A611D
:10097000704700000000002000127A001A000020DA
:100980001C00002038B504460D4600204FF0E02141
:10099000886105FB04F000EB4001C1EBC0104FF093
:1009A000E021486103200861E11704EB5171C1F3B4
:1009B000C7016B4A11701046007800EB4001C1EB93
:1009C000C0104FF6FF7101EAC000664908804FF47D
:1009D000C06001F03FFAFF208DF8000003208DF881
:1009E000010000208DF8020001208DF80300684608
:1009F00001F035FA38BD01205B4908705B4800788A
:100A000020B15A480078401E58490870704756482F
:100A1000007820B100205449087001207047002060
:100A2000FCE730B503464FF0E024A1694D4C248823
:100A300003FB04F200204FF0E0246469B2FBF4F4FD
:100A40004A4D2C704FF0E0246469B2FBF4F504FBCE
:100A50001520814215D9081A00BF444C2478002C77
:100A6000FBD10A2806D200BF4FF0E024A4690A2C6B
:100A7000FAD824E000BF4FF0E024A4698442FAD8F9
:100A80001DE03A4C2478641C384D2C704FF0E02463
:100A900064690C44201A00BF344C2478002CFBD12C
:100AA0000A2806D200BF4FF0E024A4690A2CFAD825
:100AB00005E000BF4FF0E024A4698442FAD830BDBD
:100AC00030B503464FF0E024A169254C247803FBA0
:100AD00004F200204FF0E0246469B2FBF4F4234DEB
:100AE0002C704FF0E0246469B2FBF4F504FB152090
:100AF000814215D9081A00BF1C4C2478002CFBD168
:100B00000A2806D200BF4FF0E024A4690A2CFAD8C4
:100B100024E000BF4FF0E024A4698442FAD81DE02D
:100B2000124C2478641C114D2C704FF0E024646941
:100B30000C44201A00BF0D4C2478002CFBD10A284D
:100B400006D200BF4FF0E024A4690A2CFAD805E0D1
:100B500000BF4FF0E024A4698442FAD830BD000001
:100B60001E00002020000020220000202300002082
:100B70007FB505460C460121022001F002FDADF8CB
:100B80000850ADF804400020ADF80A00ADF80600AA
:100B900001A90E4801F020FE012211460B4802F087
:100BA00092F91D208DF8000002208DF8010003202D
:100BB0008DF8020001208DF80300684601F04FF91E
:100BC0000121024802F064F97FBD000000040040EA
:100BD00000B587B001214FF4017001F0C5FC4FF45E
:100BE000004001F025FC1020ADF8040000208DF835
:100BF000070001A92D4801F0FBF92D4802F02AFE5B
:100C0000002002908DF80C008DF80D004FF460204C
:100C100004900020059001208DF8180002A92448B6
:100C200002F03FFE0121224802F067FE204802F058
:100C300086FE00BF1E4802F087FE0028FAD11C483D
:100C400002F08CFE00BF1A4802F08DFE0028FAD197
:100C500007B000BD10B50446032301222146144805
:100C600002F0B7FE0121124802F087FE00BF022108
:100C70000F4802F0F3FF0028F9D00D4802F010FFF2
:100C800010BD2DE9F04107460C460025002605E081
:100C90003846FFF7DFFF0544701CC6B2A642F7DBFB
:100CA000B5FBF4F080B2BDE8F0810000000801401F
:100CB00000240140F8490A780978491CF64B19705C
:100CC000F64988540978552903D000211A46117035
:100CD0007047F14909780B2900DAF9E7EF494978BB
:100CE000503909294ED2DFE801F0050D151D252DDB
:100CF000353D4500EA49E94A921C13680B60526889
:100D00004A603FE0E749E54A921C13680B6052686D
:100D10004A6037E0E449E14A921C13680B6052686C
:100D20004A602FE0E149DD4A921C13680B6052686B
:100D30004A6027E0DE49D94A921C13680B6052686A
:100D40004A601FE0DB49D54A921C13680B60526869
:100D50004A6017E0D849D14A921C13680B60526868
:100D60004A600FE0D549CD4A921C13680B60526867
:100D70004A6007E0D249C94A921C13680B60526866
:100D80004A6000BF00BF0021C34A117000BF9FE747
:100D900070B50446CB480068022802D16620FFF7F0
:100DA0000CFBC8480068132803D1C3490878FFF733
:100DB00004FBC5480068002838D1C24800681828DC
:100DC0000BD0C0480068312807D0BE4800684A28C8
:100DD00003D0BC480068632828D1BA480068401C8A
:100DE000192190FBF1F0401EB84941F82040084617
:100DF000C068D8B10846006849680844B34908602B
:100E00000846006889680844B049086008460068D8
:100E1000C9680844AD4908600868C11700EB9171C2
:100E20008910AA4A11600120A7490860A5480068F6
:100E3000272807D1A648006803F0C3F9C5B22846A1
:100E4000FFF7BBFA9F4800683B2803D19B4908780D
:100E5000FFF7B3FA9B4800684F2803D197490879F8
:100E6000FFF7ABFA97480068632805D16420FFF7C5
:100E7000A4FA00209349086070BD2DE9F0410121DA
:100E8000944802F0CEFA00287ED093480068401CB7
:100E9000914908609148006803F053F99049914ADC
:100EA000126841F822009048006803F04AF98F491F
:100EB0008C4A126841F822008D48006803F041F91D
:100EC0008C49884A126841F822008B4801688B4897
:100ED000844A126840F82210894801688948814A8A
:100EE000126840F822107F480068401C7D49086065
:100EF0000846006804287DD10020086059E0784841
:100F0000784A126850F822107F48006802F0C9FE43
:100F10007D4908607548734A126850F822107B4872
:100F2000006802F0BEFE7949086072486D4A126896
:100F300050F822107648006802F0B3FE7449086049
:100F40006E48684A126850F822107248006802F031
:100F5000A8FE704908606B48624A126850F8221077
:100F60006D48006802F09DFE6B49086000215C48F6
:100F70005C4A126840F822105C485A4A126840F8ED
:100F800022105C48574A00E0F9E0126840F822104D
:100F900000205A49534A126841F82200002159485A
:100FA000504A126840F822104E480068401C4D49D3
:100FB00008604C4800680528A1DB58495248006881
:100FC00002F0F9FE5049086054495048006802F0A8
:100FD000F2FE4E49086051494D48006802F0EBFEB0
:100FE0004B4908604948006880F00044204603F0FF
:100FF00015F900E0A9E005464FF06632484B02F0D3
:10100000BFFF074603F01DF94649086000203F492D
:10101000086045494548006803F03AF914D83A4851
:10102000006880F00044204603F0F8F805464FF0D1
:1010300066323B4B02F0A4FF074603F002F93C493D
:10104000086000203049086034493248006802F0E6
:10105000B2FE3049086031492F48006802F0ABFE0B
:101060002D4908602B4801683248334A126840F81D
:1010700022102948006831492F4A126841F822009D
:101080000020184908602C480068012858D1002029
:101090002949086059E00000780100206805002017
:1010A00028000020300000203800002040000020F0
:1010B0004800002050000020580000206000002060
:1010C0006800002088000020940000209004002088
:1010D000BC000020000400408400002070000020BC
:1010E000A00400208000002074000020B404002030
:1010F00078000020C8040020A0000020DC040020AC
:10110000A4000020F0040020E4000020E8000020FB
:10111000EC000020F0000020F40000200000A040BF
:10112000666602400C0100200000A04298000020EA
:1011300008010020A80000207C000020B000002052
:10114000FE480068401CFD490860FD480068B0F595
:10115000FA7F08DBFB480068401CFA490860FA483F
:101160000088FFF715FEF948006820B9F4480068C8
:10117000401CF34908600121F54802F063F9BDE81D
:10118000F08110B5F348006800281BDDF1480068C5
:1011900002F0D7FFF0490860F049EF48006802F01C
:1011A0000AFEED490860EE480168EB48006802F06D
:1011B000D0FD044603F005F8EA490988081AEA490F
:1011C00008801FE0E348006800281BDAE148006857
:1011D000404202F0B6FFE0490860E049DE4800689E
:1011E00002F0E9FDDC490860E0480168DA4800687F
:1011F00002F0AFFD044602F0E4FFDA490988084432
:10120000D9490880DA48006800281BDDD848006802
:1012100002F097FFD7490860D049D648006802F02D
:10122000CAFDD4490860D4480168D248006802F079
:1012300090FD044602F0C5FFD04909880844D04912
:1012400008801FE0CA48006800281BDAC848006808
:10125000404202F076FFC7490860C049C5480068AF
:1012600002F0A9FDC3490860C6480168C14800688A
:1012700002F06FFD044602F0A4FFC0490988081A75
:10128000BF49088010BD002818DDB2490968014433
:10129000B04A116011460968642901DD64211160BA
:1012A000B3490968091AB24A11601146096811F177
:1012B000640F1DDA6FF06301116019E0002817DA7E
:1012C000A44909680144A34A11601146096811F153
:1012D000640F02DA6FF063011160A5490968091A09
:1012E000A34A116011460968642901DD6421116077
:1012F000704700280BDD974A12680244954B1A602C
:101300001A461268642A11DD64221A600EE0002871
:101310000CDA904A126802448E4B1A601A46126820
:1013200012F1640F02DA6FF063021A6000290BDD1C
:101330008F4A12680A448E4B1A601A461268642A51
:1013400011DD64221A600EE000290CDA884A126866
:101350000A44874B1A601A46126812F1640F02DAC7
:101360006FF063021A6070472DE9F04F87B086482E
:10137000006802F053FF04460D4684490988844AF8
:101380001288881A02F0E6FE80460022814B02F0A5
:10139000F7FD0022804BCDE9000102F063FE064616
:1013A00022462B4602F0ECFD82468B4677480088A9
:1013B00002F0E1FE52465B46CDE9020102F039FD42
:1013C000CDE9040102F011FF744908800846008845
:1013D000B0F50A7F02DB4FF40A7008806F4800887E
:1013E000B0F5E67F03DA40F2CB106C49088007B015
:1013F000BDE8F08F70B5044669480068201A00EB1C
:10140000800040000F2190FBF1F5284602F099FE84
:101410006449086000216348006802F02FFF02D28F
:1014200000206049086070BDFFF742FAFEF7D7FE62
:101430000A214820FFF7A6FAFFF7CAFBFFF762F977
:101440004FF41650FEF76FFF4FF47A70FFF76DFA06
:1014500041F61F416320FFF78BFBC32141F2873028
:10146000FFF7BAF84FF4A06000F0F4FC40F202205D
:101470003C4908804FF4B7704B49088040F279200E
:101480004A49088040F227203C49088040F2CD209C
:10149000474908804FF4D3704649088040F2CB108A
:1014A0003B4908804FF40A703849088040F2C27006
:1014B0004149088040F2C1304049088029490988E3
:1014C000394A1288881A02F03CFE254908603749DB
:1014D0000988244A1288881A02F033FE23490860DA
:1014E00033490988254A1288881A02F02AFE2249BF
:1014F0000860224909882F4A1288881A02F021FEC2
:10150000204908605FE12E49B1F9000002F019FEA0
:1015100006464FF08E4102F04EFC0546294902F086
:1015200018FC044602F034FE274908602449B1F94A
:10153000020002F006FE064648E000007C000020A3
:101540009000002088000020380100209400002036
:1015500000040040540100204C0100200000C8425B
:10156000680100202C0100203A0100206C010020BD
:101570005801002050010020700100202E010020A1
:101580003C010020740100200C01002040010020DB
:101590003E0100200000F83F0000594048010020B3
:1015A0009004002098000020300100203401002029
:1015B00032010020360100204201002044010020B9
:1015C0004000002000003443700000204FF08E41A6
:1015D00002F0F1FB0546FE4902F0BBFB044602F0B7
:1015E000D7FDFC490860FC49B1F9040002F0A9FDEF
:1015F00006464FF08E4102F0DEFB0546F44902F04C
:10160000A8FB044602F0C4FDF4490860F449B1F9AE
:10161000000002F096FD05464FF08E4102F0CBFB34
:1016200004464FF0834102F094FBEE490860EC4918
:10163000B1F9040002F085FD05464FF08E4102F03D
:10164000BAFB04464FF0834102F083FBE649086091
:10165000E6480068642190FBF1F4204602F071FD39
:10166000E34908600A210420FFF70BFBE1490880E9
:101670000020E1490860E1490860E148006801286C
:101680002ED1DC480088FFF7B5FEDE49DE48006851
:1016900002F0F4FD11D8DD49DD48006802F0F8FDE4
:1016A0000BD80021DB48006802F0E8FD01D2FFF70B
:1016B0005BFED9480088D9490880D449D4480068DD
:1016C00002F0DCFD0CD2D2480168D04802F03BFBAE
:1016D0000446D3480168204602F035FBCD49086036
:1016E000D04A1168506802F02EFBCF490860CF4AFB
:1016F0001168506802F027FBCD490860CD480068AA
:1017000008B9012000E00020CA490860CA48006802
:10171000552802DB0020C8490860C849C84800684D
:1017200002F0B6FD02D2C548C5490860C349B948B0
:10173000006802F0ADFD02D2C048B6490860C14958
:10174000BF48006802F09AFD02D2BE48BC4908605A
:10175000BC49B048006802F091FD02D2B948AD49D9
:101760000860AC48006880F00046304602F010FD8A
:101770000446A848006880F00046304602F008FDA4
:1017800005462146FFF7B5FDAD48006802F000FDB3
:101790000446FFF778FDFFF7F4FCA0480188AA484B
:1017A00001F00EFEA9480188A74801F00BFEA848E9
:1017B0000188A54801F008FEA6480188A24801F06A
:1017C00005FEFFF75AFB9EE670472DE9F04F8BB000
:1017D000A1480068A14990FBF1F201FB120A5046B2
:1017E00002F0B8FC00229E4BCDE9020102F03AFC67
:1017F000064600229B4B02F035FC04460D469649F6
:10180000086802F0A7FC06460022974B02F02AFC6B
:1018100022462B46CDE9040102F00BFB934A944B80
:10182000CDE9060102F0ACFB0022924BCDE90801A4
:1018300002F018FC804602F004FD8F4908608648DB
:101840004068864990FBF1F201FB120A504602F013
:1018500081FC06460022824B02F004FC0022814BF0
:10186000CDE9020102F0FEFBCDE906017A494868A4
:1018700002F070FC064600227B4B02F0F3FBCDE940
:101880000401DDE9062302F0D4FA8046774A784B5A
:1018900002F076FB04460022764B02F0E3FBCDE932
:1018A000080102F0CEFC754908607348016874486D
:1018B000006802F048FA734908607048016872488D
:1018C000006802F040FA71490860084601686D48F6
:1018D000006802F070FA064602F0A0FC044603F02D
:1018E000CFF96B4A03C20022624B694903C902F077
:1018F00047FB04465D4A5E4B02F0B4FB644A03C2F8
:1019000000216048006802F0B9FC0DD200215F4858
:10191000006802F0BDFC07D25D480CC800205D499C
:1019200002F087FA5A4A03C200215648006802F0C2
:10193000A5FC0DD200215548006802F09FFC07D29B
:1019400053480CC80020534902F014FB504A03C20C
:1019500000214C48006802F09BFC0DD200214B484E
:10196000006802F08BFC07D249480CC800204149AE
:1019700002F05FFA464A03C247480068012807D1CF
:101980003D480068454908603C4800684449086093
:1019900041480068032807D1374800683F4948603C
:1019A000364800683E4948603C494868002102F0DA
:1019B00065FC77D03A494868002102F05FFC71D09D
:1019C000364A5168106802F0BEF92E4908606AE094
:1019D0000000344374000020400000207800002004
:1019E00030000020A0000020A400002058000020AB
:1019F000CC000020380100205401002058010020B4
:101A0000940000200000A040BC0000200000A04284
:101A1000980000200C010020440100204601002015
:101A2000E8000020A8000020F8000020B0000020FE
:101A3000FC00002094812142840000200000C84264
:101A4000080100200000C8C2000800404801002032
:101A50003A0100203C0100206000002080969800A0
:101A6000006AF84000004E40D01263414AD8124D3F
:101A7000FB2109400080664014010020180100206D
:101A80001C0100202401002020010020280100204A
:101A900060010020008076408C000020D0000020F3
:101AA000D800002062E0C44A5168106802F04BF987
:101AB000C249086008460168C148006802F07BF925
:101AC000804602F0ABFB064603F0DAF8044602F06B
:101AD000B8FBBC490860BC49BA48006802F039F953
:101AE000804602F09BFB0646B84AB94B02F0BAFAB0
:101AF000044602F0A6FBB34908600021B048006824
:101B000002F0BCFB0CD20021AC48006802F0C0FB24
:101B100006D2AC480168AF4802F0C3F8A949086092
:101B20000021A748006802F0A9FB0CD20021A348BD
:101B3000006802F0A3FB06D2A2480168A54802F0A3
:101B400002F9A049086000219D48006802F0A0FB4E
:101B50000CD200219948006802F090FB06D2994807
:101B60000168994802F09DF8964908609548006818
:101B700002F054FB064698480CC8304602F0FDF9C6
:101B8000044602F05EFB954908608F49934800685F
:101B900002F07EFB06D28F499048006802F0D3F82D
:101BA0008E4908608E498D48006802F067FB06D2B6
:101BB0008A480168874802F074F8884908607F48BD
:101BC000006802F02BFB06460F467C48006802F0D6
:101BD00025FB8046834A844B02F0D2F98246324686
:101BE0003B4602F0CDF904467E4A7F4B02F0C8F92D
:101BF000CDE9080102F025FB7C4908607C480068BB
:101C000002F00CFB044603F04BF9CDE906016C48E9
:101C1000006802F003FB04460D467548006802F0B8
:101C2000FDFA064603F03CF98046894664480068A0
:101C300002F0F4FA06466F4A6F4B02F0A1F94246F1
:101C40004B46CDE9000102F09BF922462B46CDE937
:101C5000020102F095F98246664A674B02F090F95C
:101C6000CDE90401DDE9062302F08AF9CDE9080196
:101C700002F0E7FA61490860084601685B480068BD
:101C800002F00FF8804602F0C9FA064603F032FE71
:101C9000044602F0D6FA5A490860084601685948D5
:101CA000006802F088F8804602F0B8FA064602F0B2
:101CB000E7FF044602F0C5FA534908600846016888
:101CC0005248006802F03FF880F000404F49086039
:101CD0004F480068401C4E490860084600680528C7
:101CE0000DD14C4840684B4908600020486032489C
:101CF00040683149086000204860454908600BB0E1
:101D0000BDE8F08F2DE9F14F43480168009802F0DB
:101D100052F804464FF07E5102F018F83F4908602F
:101D2000009802F07BFA06463D4A3E4B02F028F945
:101D300004460D463C48006802F070FA06463B4AED
:101D40003B4B02F01DF9804622462B4602F08AF9F1
:101D5000824602F076FA374908600846006802F0C9
:101D60005DFA06460F462D48006802F057FA804695
:101D700032463B4603F0E2F8044602F062FA274995
:101D800008600846006802F049FA06460F462648F1
:101D9000006802F043FA82460022274B02F062F903
:101DA000804632463B4602F0EBF8044602F049FA20
:101DB00014490860BDE8F88FD800002028010020F1
:101DC00024010020E0000020000034434AD8124DD6
:101DD000FB2109400000B44360010020B80000204E
:101DE000000034C3DBF97E6ABCA45B40C400002061
:101DF0001801002014AE47E17AD45B40C8000020EF
:101E0000C0000020BC000020100100200C010020B8
:101E10008C000020D0000020CC0000200001002019
:101E200039B4C876BE9F7A3F9C0000204DA1F31ABA
:101E3000BB0628400401002000001A40704700BF84
:101E4000FEE700BFFEE700BFFEE700BFFEE770470A
:101E50007047704731490143314A1160704770B58E
:101E6000002100230F22C47804B32D4C246804F40D
:101E7000E064C4F5E064210AC1F10403CA40447877
:101E800004FA03F18478144021430901254C0678B3
:101E9000A155047804F01F050124AC4005786D11AC
:101EA000AD0005F1E025C5F8004109E0047804F033
:101EB0001F050124AC401C4D0678761145F82640DC
:101EC00070BD1A4A0A400243154B1B1F1A60704727
:101ED00039B1134A121D12680243114B1B1D1A60BF
:101EE00006E00F4A121D126882430D4B1B1D1A603B
:101EF0007047042808D14FF0E021096941F004013E
:101F00004FF0E022116107E04FF0E021096921F074
:101F100004014FF0E0221161704700000000FA0553
:101F20000CED00E000E400E080E100E080FFFF1F36
:101F300010B50446CC48844208D10121042000F0A9
:101F40002DFB0021042000F029FB46E0C748844215
:101F500008D10121082000F021FB0021082000F019
:101F60001DFB3AE0C248844208D10121102000F054
:101F700015FB0021102000F011FB2EE0BD4884422B
:101F800008D10121202000F009FB0021202000F0D1
:101F900005FB22E0B848844208D10121402000F02E
:101FA000FDFA0021402000F0F9FA16E0B34884421F
:101FB00008D10121802000F0F1FA0021802000F0FA
:101FC000EDFA0AE0AE48844207D10121801500F005
:101FD000E5FA0021A01500F0E1FA10BD10B50121CD
:101FE000084600F0DBFA0021012000F0D7FA10BD0E
:101FF0002DE9F041024600250026002000230024A0
:10200000002791F803C00CF00F0591F803C00CF005
:10201000100CBCF1000F03D091F802C04CEA05058A
:1020200091F800C0BCF1000F31D0146800202BE003
:102030004FF0010C0CFA00F3B1F800C00CEA0306F3
:102040009E4220D183004FF00F0C0CFA03F7BC43E3
:1020500005FA03FC4CEA040491F803C0BCF1280F14
:1020600006D14FF0010C0CFA00FCC2F814C00AE0D3
:1020700091F803C0BCF1480F05D14FF0010C0CFAE8
:1020800000FCC2F810C0401C0828D1D31460B1F87D
:1020900000C0BCF1FF0F34DD546800202EE000F1D9
:1020A000080C4FF0010808FA0CF3B1F800C00CEA74
:1020B00003069E4221D183004FF00F0C0CFA03F768
:1020C000BC4305FA03FC4CEA040491F803C0BCF1DC
:1020D000280F05D100F1080C08FA0CF8C2F814809A
:1020E00091F803C0BCF1480F07D100F1080C4FF084
:1020F000010808FA0CF8C2F81080401C0828CED35A
:102100005460BDE8F0814FF6FF71018002218170BB
:102110000421C17070470246002093680B400BB148
:10212000012000E0002070470146886880B27047B7
:1021300002460020D3680B400BB1012000E00020D4
:1021400070470146C86880B27047016170474161BD
:1021500070470AB1016100E041617047C16070479A
:102160004FF480320A4382618161826182698269AF
:10217000704702460020434B18684FF680731840A2
:1021800040EA021008433F4B186070473E49C8615F
:102190007047F0B50A46002300240021002500F016
:1021A0000046B6F1004F02D1364EF16901E0354EDE
:1021B0007168C0F3034583B200F44016B6F5401FC2
:1021C00008D121F070612F4E766826F070662D4F91
:1021D0007E6012E000F48016B6F5801F06D103265B
:1021E00006FA05F4A14341F0706106E0460D3601A0
:1021F00003FA06F6B14341F0706122B1460D360193
:1022000003FA06F6314300F00046B6F1004F02D162
:102210001C4EF16101E01B4E7160F0BD30B5002233
:102220008B071C0F0F2303FA04F2164B08338C1094
:1022300053F824309343134C08348D1044F8253060
:1022400023468C1053F824308C07240F00FA04F432
:1022500023430C4C08348D1044F8253030BD0A4916
:10226000DC3108607047000000080140000C0140AC
:10227000001001400014014000180140001C014002
:10228000002001400000014000002042DF480068BB
:1022900040F00100DD49086008464068DC4908401C
:1022A000DA49486008460068DA490840D7490860BA
:1022B0000846006820F4802008600846406820F442
:1022C000FE0048604FF41F0088607047CF490968DE
:1022D00021F48031CD4A11601146096821F4802132
:1022E0001160B0F5803F03D0B0F5802F0ED106E02D
:1022F000C649096841F48031C44A116007E0C34906
:10230000096841F4A021C14A116000E000BF00BF8C
:10231000704710B501460022002300204A11012A0F
:1023200002D1BA4C236806E0022A02D1B74C236AD4
:1023300001E0B64C636A01F01F02012494401C4086
:102340000CB1012000E0002010BD38B50020009045
:102350000024002500BF3120FFF7DBFF0546009871
:10236000401C00900098B0F5A06F01D0002DF2D075
:102370003120FFF7CEFF08B1012400E00024204601
:1023800038BD01460020A14A106820F0F80040EA5C
:10239000C10010607047A0490860704702460020E5
:1023A0009A4B586820F47C1042EA01031843974B7B
:1023B0005860704798490866704701460020934A64
:1023C000506820F003000843506070478F48406811
:1023D00000F00C007047014600208C4A506820F045
:1023E000F00008435060704701460020874A50685B
:1023F00020F4E06008435060704701460020834AA3
:10240000506820F4605040EAC1005060704729B124
:102410007E4A527A02437D4B5A7204E07B4A527ADA
:1024200082437A4B5A7270477B49D83108607047B3
:1024300001460020754A506820F44040084350602F
:1024400070470021714A20321170704A82F82010C2
:10245000012802D004280AD104E001216B4A20326D
:10246000117005E00521694A2032117000E000BFBB
:1024700000BF70476949086070476449096A0143B1
:10248000624A11627047654944390860704730B547
:1024900000210022002400235C4D6D6805F00C0132
:1024A00021B1042905D0082923D105E05C4D056040
:1024B00022E05B4D05601FE0544D6D6805F470121D
:1024C000524D6D6805F48034022505EB92421CB92B
:1024D000544D554305600BE04C4D6D6805F40035D7
:1024E0001DB1504D5543056002E04D4D554305600B
:1024F00002E04B4D056000BF00BF444D6D6805F024
:10250000F0010909484D6B5C0568DD4045603F4DB1
:102510006D6805F4E061090A434D6B5C4568DD4078
:1025200085603A4D6D6805F46051C90A3E4D6B5C9B
:102530004568DD40C560354D6D6805F44041890B47
:102540003A4D6B5CC568B5FBF3F5056130BD29B14B
:102550002E4A526902432D4B5A6104E02B4A5269BC
:1025600082432A4B5A61704729B1284A9269024333
:10257000264B9A6104E0254A92698243234B9A6173
:10258000704729B1214AD2690243204BDA6104E045
:102590001E4AD26982431D4BDA61704729B11B4A3A
:1025A000D2680243194BDA6004E0184AD2688243C9
:1025B000164BDA60704729B1144A12690243134B73
:1025C0001A6104E0114A12698243104B1A61704784
:1025D00012494039086070470F49C86470470B4979
:1025E000C87170470948406A40F0807007494862E6
:1025F000704701460020054A92680A400AB101204E
:1026000000E00020704701498872704700100240C6
:102610000000FFF8FFFFF6FE000042428004424245
:1026200000127A0000093D00790100208901002094
:1026300010B50446FE48844208D10121C014FFF7BA
:10264000ADFF0021E014FFF7A9FFC4E0B4F1804F13
:1026500008D101210846FFF7AEFF00210120FFF756
:10266000AAFFB8E0F348844208D101210220FFF715
:10267000A2FF00210220FFF79EFFACE0EE4884425B
:1026800008D101210420FFF796FF00210420FFF765
:1026900092FFA0E0E948844208D101210820FFF719
:1026A0008AFF00210820FFF786FF94E0E448844277
:1026B00008D101211020FFF77EFF00211020FFF735
:1026C0007AFF88E0DF48844208D101212020FFF70B
:1026D00072FF00212020FFF76EFF7CE0DA48844281
:1026E00008D101214014FFF759FF00216014FFF7C2
:1026F00055FF70E0D548844209D10121C804FFF795
:102700004DFF00214FF40020FFF748FF63E0D04861
:10271000844209D101210805FFF740FF00214FF451
:102720008010FFF73BFF56E0CA48844209D10121DF
:102730004805FFF733FF00214FF40010FFF72EFF8D
:1027400049E0C548844208D101214020FFF733FF0A
:1027500000214020FFF72FFF3DE0C048844208D110
:1027600001218020FFF727FF00218020FFF723FFB2
:1027700031E0BB48844208D101218015FFF71BFFDF
:102780000021A015FFF717FF25E0B648844209D1C4
:1027900001210804FFF702FF00214FF48030FFF70A
:1027A000FDFE18E0B048844209D101214804FFF73A
:1027B000F5FE00214FF40030FFF7F0FE0BE0AB48D0
:1027C000844208D101218804FFF7E8FE00214FF47C
:1027D0008020FFF7E3FE10BD00220288944B984250
:1027E0000ED0994B98420BD0B0F1804F08D0914B4E
:1027F000984205D0904B984202D0904B984204D119
:102800004FF68F731A404B881A438D4B984207D06E
:102810008C4B984204D04FF6FF431A40CB881A43A2
:1028200002808B8883850B880385814B98420BD06F
:10283000854B984208D08B4B984205D08A4B9842E2
:1028400002D08A4B984201D10B7A038601238382FE
:10285000704770B5002400220023058C4FF6FE76E9
:1028600035400584028C8388048B4FF68F752C408D
:10287000B51E2C400D882C43751E2A400D892A4315
:102880004D882A436A4DA8420BD06F4DA84208D00C
:10289000744DA84205D0744DA84202D0734DA84291
:1028A00013D14FF6F7752A404D892A434FF6FB7531
:1028B0002A408D882A434FF6FF652B404FF6FF557F
:1028C0002B408D892B43CD892B4383800483CD8876
:1028D0008586028470BD70B5002400220023058C1B
:1028E0004FF6EF7635400584028C8388048B48F6DA
:1028F000FF752C404FF6FF452C400D884FF6FF76B4
:1029000006EA05252C434FF6DF752A400D8906EAB5
:1029100005152A434D8806EA05152A43444DA84269
:1029200002D0494DA8421DD14FF67F752A404D89EE
:102930004FF6FF7606EA05152A434FF6BF752A4083
:102940008D8806EA05152A434FF6FF352B404FF2D6
:10295000FF752B408D8906EA85052B43CD8906EA54
:1029600085052B4383800483CD880587028470BD51
:1029700070B5002400220023058C4FF6FF66354019
:102980000584028C8388848B4FF68F752C404FF61C
:10299000FC752C400D882C434FF6FF552A400D89BD
:1029A0004FF6FF7606EA05252A434D8806EA0525F7
:1029B0002A431F4DA84202D0234DA8421DD14FF2F9
:1029C000FF752A404D894FF6FF7606EA05252A4312
:1029D0004FF6FF352A408D8806EA05252A434EF634
:1029E000FF752B404DF6FF752B408D8906EA0515C6
:1029F0002B43CD8906EA05152B4383808483CD883C
:102A00008587028470BD70B5002200230024058CE8
:102A10004EF6FF7635400584038C8488828B48F619
:102A2000FF752A404FF6FF452A400D8820E0000040
:102A3000002C01400004004000080040000C004051
:102A4000001000400014004000340140004C0140E0
:102A5000005001400054014000180040001C00409C
:102A60000020004000400140004401400048014077
:102A70004FF6FF7606EA05252A434DF6FF752B40F3
:102A80000D8906EA05352B434D8806EA05352B43AB
:102A9000FA4DA84202D0FA4DA84208D14BF6FF7574
:102AA0002C408D894FF6FF7606EA85152C438480ED
:102AB0008283CD88A0F84050038470BD828B4FF292
:102AC000FF331A408283828B4FF6FF7303EA0123A0
:102AD0001A4382837047F0B50C4615460022002148
:102AE0000026078C4EF6FF7C07EA0C070784828BD2
:102AF000018C4FF6FF7707EA043640F6FF473A406D
:102B00004FF6FF7707EA05273A434FF6FF7707EAC4
:102B100003373A43D94FB8420ED0D94FB8420BD001
:102B2000B0F1804F08D0D74FB84205D0D64FB84249
:102B300002D0D64FB84206D14DF6FF77394046F461
:102B40008057394305E047F6FF57394044F4805732
:102B5000394382830184F0BD828B4FF6F3731A40B0
:102B60008283828B0A4382837047F0B50C461546F8
:102B7000002200210026078C4FF6FF6C07EA0C07A5
:102B80000784828B018C4FF6FF7707EA04264FF605
:102B90000C773A404FF6FF7707EA03172F433A4383
:102BA000B64FB8420ED0B64FB8420BD0B0F1804FFE
:102BB00008D0B44FB84205D0B34FB84202D0B34F9B
:102BC000B84206D14FF6FF57394046F48077394373
:102BD00005E04FF2FF57394044F480773943828350
:102BE0000184F0BD028B4FF2FF331A400283028B47
:102BF0004FF6FF7303EA01231A4302837047F0B5CF
:102C00000C461546002200210026078C4FF6EF7C6B
:102C100007EA0C070784028B018C4FF6FF7707EA5F
:102C2000041640F6FF473A404FF6FF7707EA0337AE
:102C30003A434FF6FF7707EA05273A438F4FB842EA
:102C40000ED08F4FB8420BD0B0F1804F08D08D4FCF
:102C5000B84205D08C4FB84202D08C4FB84206D152
:102C60004FF6DF77394046F01007394305E04FF65D
:102C70005F77394044F01007394302830184F0BD87
:102C8000028B4FF6F3731A400283028B0A430283CE
:102C90007047F0B50C46154600220021068C4FF611
:102CA000FE773E400684028B018C4FF60C76324054
:102CB0007E1C06EA03162E433243704EB0420ED0FD
:102CC0006F4EB0420BD0B0F1804F08D06D4EB04285
:102CD00005D06D4EB04202D06C4EB04206D14FF6D8
:102CE000FD76314044F00106314305E04FF6F576BC
:102CF000314044F00106314302830184F0BD70B5D8
:102D000005460C465D4885420ED05D4885420BD095
:102D1000B5F1804F08D05B48854205D05A488542BE
:102D200002D05A48854200D100E000BF208850B947
:102D30002389A28861882846FFF7ABFFE1882846EF
:102D4000FFF79EFF25E0208804280AD12389A28866
:102D500061882846FFF753FFE1882846FFF742FFC6
:102D600017E0208808280AD12389A288618828468C
:102D7000FFF7FBFEE1882846FFF7EEFE09E0238916
:102D8000A28861882846FFF7A6FEE1882846FFF75B
:102D900095FE70BD2DE9F04105460C460026012741
:102DA000608808B9022600E00026A088012801D129
:102DB000022700E001272088A0B92389A288618822
:102DC0002846FFF766FFE1882846FFF759FF238969
:102DD0003A4631462846FFF712FFE1882846FFF7BA
:102DE00001FF13E02389A28861882846FFF707FFC7
:102DF000E1882846FFF7F6FE23893A463146284601
:102E0000FFF747FFE1882846FFF73AFFBDE8F0816A
:102E10000A884B881A438B881A43CB881A430B893C
:102E20001A434B891A438B891A43A0F844207047F0
:102E30004FF6FF71818000210180C18041800172C5
:102E400070470021018041808180C18001814181E2
:102E50008181C181704700210180418001218180F1
:102E60000021C18001817047002101804180818063
:102E7000C18001814181818170470000002C0140A7
:102E8000003401400004004000080040000C0040F5
:102E900021B1028842F00102028004E002884FF66C
:102EA000FE731A400280704731B1B0F8442042F4FA
:102EB0000042A0F8442005E0B0F84420C2F30E021E
:102EC000A0F8442070471AB183890B43838102E044
:102ED00083898B43838170478182704741EA020373
:102EE000A0F8483070471AB183890B43838102E010
:102EF00083898B438381704701894FF6F8721140B3
:102F0000018170470A46002101894FF68F731940ED
:102F100011430181704730B504460D4629462046CD
:102F2000FFF7F0FF208940F00700208130BD2DE938
:102F3000F04104460D4616461F46602D06D13B461D
:102F4000012231462046FFF75AFE05E03B460122AA
:102F500031462046FFF79DFE29462046FFF7D2FF67
:102F6000208940F007002081BDE8F08130B50C4693
:102F700000210189C9B24FF6FF7505EA0325154303
:102F800025432943018130BD2DE9F04105460E4618
:102F900017469846002443463A4631462846FFF7EE
:102FA000E5FF2C894FF6F870044044F007044FF613
:102FB0008F70044044F070042C81BDE8F081F0B5BE
:102FC00004460D4616461F463B46324629462046D5
:102FD000FFF7CCFF208940F480402081F0BD0185BF
:102FE000828270470A46002101884FF68F7319408C
:102FF000114301807047F0B50C4615461E4600216E
:10300000002200230189028B038C4FF6F8773940A8
:1030100021434FF6FC473A4040F201173A434FF63E
:10302000DD773B404FF6FF7707EA06172F433B4318
:10303000018102830384F0BD0A460021018B4FF613
:103040008F7319401143018370470A460021018B99
:1030500048F6FF7319404FF6FF7303EA0223194342
:10306000018370470A460021818B4FF68F73194008
:103070001143818370470A460021818B48F6FF7314
:1030800019404FF6FF7303EA022319438183704707
:1030900021B1028842F08002028004E002884FF6EB
:1030A0007F731A400280704721B1828842F0040287
:1030B000828004E082884FF6FB731A40828070475A
:1030C00021B1828842F00802828004E082884FF6B3
:1030D000F7731A408280704721B1828842F0010262
:1030E000828004E082884FF6FE731A408280704727
:1030F0000A460021018B4FF6F773194011430183F3
:1031000070470A460021018B4FF2FF7319404FF6BA
:10311000FF7303EA02231943018370470A46002123
:10312000818B4FF6F77319401143818370470A462C
:103130000021818B4FF2FF7319404FF6FF7303EAB2
:1031400002231943818370470A460021018B4FF601
:10315000FB7319401143018370470A460021018B1C
:103160004FF6FF3319404FF6FF7303EA022319436A
:10317000018370470A460021818B4FF6FB7319408B
:103180001143818370470A460021818B4FF6FF333C
:1031900019404FF6FF7303EA0223194381837047F6
:1031A0000A460021018B4FF67F73194011430183BA
:1031B00070470A460021018BC1F30E014FF6FF73E1
:1031C00003EA02231943018370470A460021818BD9
:1031D0004FF67F7319401143818370470A460021DF
:1031E000818BC1F30E014FF6FF7303EA02231943EB
:1031F000818370470A460021018C4FF6FD73194008
:103200001143018470470A460021018C4FF6F77381
:1032100019401143018470470A460021018C4FF682
:10322000DF7319404FF6FF7303EA02131943018459
:1032300070470A460021018C4FF67F7319404FF604
:10324000FF7303EA02131943018470470A46002101
:10325000018C4FF6FF5319404FF6FF7303EA022328
:103260001943018470470A460021018C4FF2FF7315
:1032700019404FF6FF7303EA022319430184704794
:103280000A460021018C4DF6FF7319404FF6FF737B
:1032900003EA023319430184704730B50023012447
:1032A0008C40A3B2048C9C430484048C02FA01F584
:1032B000ADB22C43048430BD30B5002304248C40CF
:1032C000A3B2048C9C430484048C02FA01F5ADB2D1
:1032D0002C43048430BD70B50346002000241846FA
:1032E000183001258D40ACB21D8CA5431D8409B159
:1032F000082909D100EB6100056825F0700505601B
:103300000568154305600EE00D1FC5F34E05284402
:10331000056825F4E045056005684FF6FF7606EA86
:1033200002263543056070BD21B1028842F00202D9
:10333000028004E002884FF6FD731A400280704755
:1033400021B1028842F00402028004E002884FF6B4
:10335000FB731A400280704721B1828842F08002DC
:10336000828004E082884FF67F731A408280704723
:1033700002884FF6F7731A40028002880A430280DF
:10338000704782884FF68F731A40828082880A4382
:103390008280704702894FF6F8731A4002810289D1
:1033A0000A430281704702894FF67F731A400281F7
:1033B00002890A4302817047818470478185704782
:1033C000818670470187704781877047A0F8401059
:1033D000704702884FF6FF431A40028002880A4372
:1033E000028070470146888E70470146088F7047FB
:1033F0000146888F70470146B1F84000704701468A
:10340000888C70470146088D704702460020138A59
:103410000B400BB1012000E000207047CA4302823C
:10342000704730B50246002000230024158A05EAC3
:103430000103958905EA010413B10CB1012000E0F4
:10344000002030BDCA4302827047000010B5044618
:10345000FB48844209D101218803FFF79FF800212E
:103460004FF48040FFF79AF832E0F648844209D1E1
:1034700001214804FFF79FF800214FF40030FFF7C7
:103480009AF825E0F048844209D101218804FFF729
:1034900092F800214FF48020FFF78DF818E0EB48F8
:1034A000844209D10121C804FFF785F800214FF4B7
:1034B0000020FFF780F80BE0E548844208D10121A5
:1034C0000805FFF778F800214FF48010FFF773F834
:1034D00010BD2DE9F04786B005460E460024A246F1
:1034E00000BFA1460027B08900B100BF2F462C8A3B
:1034F0004CF6FF700440F08804432C82AC894EF6F1
:10350000F3100440B08831890843718908430443AB
:10351000AC81AC8A4FF6FF400440B0890443AC82D2
:1035200001A8FEF7B4FFC648874202D1DDF810A01B
:1035300001E0DDF80CA0A88900F4004040B10AEBDE
:10354000CA0000EB0A1031684900B0FBF1F807E04F
:103550000AEBCA0000EB0A1031688900B0FBF1F8F1
:103560006420B8FBF0F004012009642101FB1089FC
:10357000A88900F4004040B1322000EBC900B0FB44
:10358000F1F000F00700044308E0322000EB0910DE
:103590006421B0FBF1F000F00F0004432C8106B071
:1035A000BDE8F0874FF41651016000218180C18091
:1035B00001810C21418100218181704710B50246B3
:1035C0000020108A4FF2FF0318400B884C882343D9
:1035D0008C882343CC8823431843108210BD0021DC
:1035E000018041808180C180704721B1828942F48D
:1035F0000052828104E082894DF6FF731A40828175
:103600007047F0B50346002400260025002040F650
:103610006A17B94200D100BF1846C1F3421401F045
:103620001F06012707FA06F5012C01D10C3004E032
:10363000022C01D1103000E014301AB107682F437A
:10364000076002E00768AF430760F0BD1AB1838AE4
:103650000B43838202E0838A8B4383827047028A12
:103660004FF6F0731A400282028A0A4302827047C0
:1036700082894FF2FF731A40828182890A438281D4
:10368000704721B1828942F00202828104E082897E
:103690004FF6FD731A4082817047028A4FF6DF733E
:1036A0001A400282028A0A430282704721B1028ACA
:1036B00042F48042028204E0028A4BF6FF731A4011
:1036C00002827047C1F308028280704701468888F1
:1036D000C0F308007047818941F001018181704782
:1036E000028BD2B20283028B42EA0122028370472C
:1036F000028B02F47F420283028B0A4302837047EB
:1037000021B1828A42F02002828204E0828A4FF64E
:10371000DF731A408282704721B1828A42F0100220
:10372000828204E0828A4FF6EF731A4082827047E9
:1037300021B1828A42F00802828204E0828A4FF636
:10374000F7731A408282704721B1828942F40042A5
:10375000828103E08289C2F30E028281704721B127
:10376000828A42F40062828204E0828A4FF2FF730E
:103770001A4082827047828A4FF6FB731A40828217
:10378000828A0A438282704721B1828A42F0020211
:10379000828204E0828A4FF6FD731A40828270476B
:1037A00002460020B1F5007F00D100BF13880B4016
:1037B0000BB1012000E00020704701F40072B2F567
:1037C000007F00D100BFCA430280704770B5024637
:1037D000002400230025002040F66A16B14200D1E3
:1037E00000BFC1F3421501F01F03012606FA03F3DF
:1037F000012D02D19689334006E0022D02D1168AAE
:10380000334001E0968A33400C12012606FA04F494
:103810001688344013B10CB1012000E0002070BDC7
:1038200010B50022002340F66A14A14200D100BF67
:103830000A1201249440A3B2DC43048010BD0000AE
:10384000003801400044004000480040004C004067
:103850000050004010B50446FA48844208D10121C6
:103860004015FEF79BFE00216015FEF797FE17E05E
:10387000F548844208D101210015FEF78FFE002192
:103880002015FEF78BFE0BE0F048844208D10121A1
:10389000C803FEF783FE00214FF40040FEF77EFED2
:1038A00010BD30B50246002000235068E84C20408F
:1038B0000D790C6844EA0524204350609068E54C7B
:1038C0002040D1E902542C434D7944EA4504204379
:1038D0009060D06A20F470000C7C641EE4B2234334
:1038E00040EA0350D06230BD002101600171417196
:1038F0008160C16001210174704721B1826842F08A
:103900000102826003E0826822F001028260704757
:1039100021B1826842F48072826003E0826822F4FE
:1039200080728260704710B50023CBB21AB1446830
:103930001C43446002E044689C43446010BD8168BD
:1039400041F0080181607047014600208A6802F05A
:1039500008020AB1012000E000207047816841F0B0
:10396000040181607047014600208A6802F0040269
:103970000AB1012000E00020704721B1826842F4C2
:10398000A002826003E0826822F4A0028260704795
:10399000014600208A6802F480020AB1012000E09A
:1039A0000020704710B50A4600210023416821F429
:1039B0006041531E41EA4331416010BD21B142686C
:1039C00042F40062426003E0426822F40062426016
:1039D0007047F0B504460D4600200021092D11DD89
:1039E000E068A5F10A0606EB4607072606FA07F186
:1039F0008843A5F10A0606EB460603FA06F10843DA
:103A0000E0600CE0206905EB4507072606FA07F1A0
:103A1000884305EB450603FA06F108432061072AAF
:103A20000FDA606B561E06EB86071F2606FA07F1B3
:103A30008843561E06EB860605FA06F108436063C6
:103A400022E00D2A0FDA206BD61F06EB86071F2611
:103A500006FA07F18843D61F06EB860605FA06F13B
:103A60000843206310E0E06AA2F10D0606EB86072A
:103A70001F2606FA07F18843A2F10D0606EB86061B
:103A800005FA06F10843E062F0BD21B1826842F414
:103A90008012826003E0826822F4801282607047A4
:103AA0000146C86C80B2704766484C300068704769
:103AB00021B1426842F48062426003E0426822F42D
:103AC00080624260704721B1426842F48052426095
:103AD00003E0426822F48052426070470A460021A7
:103AE000816821F4E04111438160704721B182680F
:103AF00042F40042826003E0826822F40042826065
:103B0000704721B1826842F40212826003E0826849
:103B100022F4021282607047014600208A6802F493
:103B200000120AB1012000E000207047F0B5044601
:103B30001546002000220026092911DDE068A1F1C8
:103B40000A0707EB470C072707FA0CF29043A1F18D
:103B50000A0707EB470703FA07F21043E0600CE09F
:103B6000206901EB410C072707FA0CF2904301EBA7
:103B7000410703FA07F210432061A06BC0F301561E
:103B8000EF1C06F1010CA7EB0C0707EB870C1F27B6
:103B900007FA0CF29043EF1C06F1010CA7EB0C079F
:103BA00007EB870701FA07F21043A063F0BD10B5D9
:103BB0000A4600210023816B21F44011531E41EA83
:103BC0000351816310BD08B5002300930090009B52
:103BD0000B440093009B1A6008BD08B50246002004
:103BE0000090009201F12800009B1844009000987A
:103BF000006880B208BD0A4600214168164B194092
:103C00001143416070474162826270470A46002159
:103C1000416821F01F0111434160704740B10949DB
:103C20000831096841F40001064A0832116007E0D2
:103C300004490831096821F40001024A0832116080
:103C4000704700000024014000280140003C014072
:103C5000FFFEF0FFFDF7F1FFFFFD3FFF02460020F2
:103C600013680B400BB1012000E000207047CA43ED
:103C70000260704770B502460020002300240B123A
:103C80005568CEB205EA060415681D4015B10CB1A1
:103C9000012000E0002070BD00220A12D34303601F
:103CA0007047F0B480EA0102D40F4200B2EB410F3A
:103CB00002D20246084611464A0042D0C30DDDB288
:103CC000C1F3C752AD1A202D35DAC1F3160141F404
:103CD000000204B15242C5F1200602FA06F12A415F
:103CE0001044B3EBD05F23D0C4B1012DA0EBC3507F
:103CF00009DCF0BC4FF0004202EAC352DBB200F52F
:103D0000000000F009BB400000F1807000EBC350E0
:103D1000A0F1807040EAD170490009E0490841EA09
:103D2000C071A0EBC35000F50000400800EBC35089
:103D3000F0BC00F0E8BA6142012202EB4101001B35
:103D4000F6E7F0BC704781F00041AAE780F0004040
:103D5000A7E780EA010210B502F00043400022D03C
:103D60004A001FD0010E01EB1261C0F35600C2F3EE
:103D7000560240F4000042F40002A0FB02200004BE
:103D80007F39140400D0401C50EA124001D4400096
:103D9000491EC2B20C0604EBD010401C4008802A19
:103DA00002D003E0002010BD20F00100002900DA5D
:103DB0000020184310BD30B480EA010202F0004533
:103DC00030F0004221F0004013D090B1C30DD40D6B
:103DD000C2F31601C0F31600E41A41F4000140F4E6
:103DE00000027D34914201D3641C00E04900002CA4
:103DF00002DA30BC002070474FF4000000239142EB
:103E000001D3891A034340084FEA4101F7D151B168
:103E1000914202D14FF0004105E002D24FF0010182
:103E200001E06FF0010103EBC450284430BC00F006
:103E30006ABA2DE9FE4F804681EA0300C00F0C46A6
:103E4000009021F0004123F00045B8EB0200A941A9
:103E500005D24046214690461C460B46024623F0BA
:103E60000040104347D0270DC7F30A00C3F30A519F
:103E70000290401A019040286BDAC3F3130040F41B
:103E8000801B0098924620B10023D2EB030A63EB1B
:103E90000B0B01985946C0F14002504600F002FA5F
:103EA00006460D4650465946019A00F01AFA10EBA4
:103EB00008006141002487EA115284EAE7731A433B
:103EC00040D0009A62B3019A012A4FEA075215DCEA
:103ED000001B61EB02014FF0004202EA0752CDE9FC
:103EE0000042001C41F5801132462B4600F051FA89
:103EF00003B0BDE8F08F40462146F9E7001B61EBB7
:103F00000201001C41F5801300185B412018A2F546
:103F1000001747EB030140EAD570B6196D4111E077
:103F20006D084FEA360645EAC0754FEA0752001B96
:103F300061EB0201001C41F5801149084FEA300095
:103F40000019514132462B4603B0BDE8F04F00F056
:103F500011BA0098012240000023D0EB020263EB6B
:103F6000E073009821464FEAE074B8EB000061EB83
:103F70000401E9E783F000435BE781F0004158E783
:103F80002DE9FE4F81EA030404F0004421F00041D2
:103F900000944FF0000B23F0004350EA01045ED080
:103FA00052EA03045BD0C3F30A54C1F30A552C440C
:103FB000A4F2F3340194A0FB0254C1F3130141F4C1
:103FC0008011C3F3130343F4801301FB024400FB8D
:103FD000034E840A970A44EA815447EA8357A4FBB4
:103FE000076802958D0A05FB07854FEA932C04FBB1
:103FF0000C542705029D4FEA065847EA1637B5EBE1
:1040000008056EEB070C870E920E47EA811742EA0D
:104010008312A7FB0201B6EB0B0164EB00042B0D2E
:1040200043EA0C335E1844EB1C50DA465146E7FB7A
:104030000201C5F313044FEA0B3343EA14534FEA6A
:104040000432019C43EA0603A4F10C040294009C90
:10405000CDE900B400F09DF903B0BDE8F08F002079
:104060000146F9E72DE9F04D81EA030404F0004B25
:1040700021F0004514464FF0000A23F0004150EAB9
:10408000050220D054EA01021DD0C5F30A570246AA
:10409000C5F31303C1F31300C1F30A5640F48015AE
:1040A00043F48013A7EB0608101BD64608F2FD3830
:1040B00073EB050002D308F1010801E092185B419F
:1040C000B8F1000F03DA00200146BDE8F08D0020B2
:1040D0004FF48011064684460EE0171B73EB05076C
:1040E00005D3121B63EB050306434CEA010C490898
:1040F0004FEA300092185B4150EA0107EDD152EAD5
:10410000030012D082EA040083EA0501084305D0C7
:10411000101BAB4106D20122002306E000224FF023
:10412000004302E06FF0010253101AEB06004CEB63
:10413000085110EB0A0041EB0B01BDE8F04D00F017
:1041400019B9C10F80EAE0700844CA07962300211C
:1041500000F0E2B80EB5C10F80EAE0700844CA076B
:10416000002140F233438DE80E000A460B4600F072
:1041700010F903B000BD0EB540F2334102910021A9
:10418000CDE900110A460B4600F003F903B000BD6B
:1041900000F0004220F00040C10DC0F3160040F4D2
:1041A00000007F2901DA00207047962903DCC1F165
:1041B0009601C84001E096398840002AF4D0404278
:1041C000704720F00040C10DC0F3160040F400001D
:1041D0007F2901DA00207047962903DCC1F196019E
:1041E000C8407047963988407047C1F30A5210B5ED
:1041F000C1F3130140F2FF3341F480119A4201DA16
:10420000002010BD40F233439A42A2F2334203DC55
:10421000524200F056F810BD904010BD00F0004230
:1042200030F000400AD0C10D01F56071C0F31600F6
:1042300042EA0151C208400711437047002001467D
:10424000704701F0004330B421F0004150EA010210
:1042500006D00A0DA2F56072C1F31301002A02DC38
:1042600030BC00207047440F44EAC104C100E0188C
:1042700030BC00EBC25000F046B80000002801DB63
:10428000C0F10040002901DBC1F1004181427047CB
:10429000002801DBC0F10040002901DBC1F1004131
:1042A00088427047202A04DB203A00FA02F10020FD
:1042B00070479140C2F1200320FA03F31943904064
:1042C0007047202A04DB203A21FA02F000217047CF
:1042D00021FA02F3D040C2F120029140084319466E
:1042E0007047202A06DBCB17203A41FA02F043EA56
:1042F000E07306E041FA02F3D040C2F1200291409F
:104300000843194670470029A8BF7047401C490060
:1043100008BF20F00100704710B4B0FA80FC00FA2A
:104320000CF050EA010404BF10BC704749B1CCF155
:10433000200421FA04F411FA0CF118BF01212143E1
:104340000843A3EB0C01CB1D4FEA00614FEA10209C
:1043500042BF002010BC704700EBC350104400293E
:10436000A4BF10BC7047401C490008BF20F00100EA
:1043700010BC704710B5141E73F1000408DA401C1D
:1043800041F1000192185B411A4301D120F0010074
:1043900010BD2DE9F04D92469B4611B1B1FA81F264
:1043A00002E0B0FA80F220329046FFF77BFF04462D
:1043B0000F4640EA0A0041EA0B0153465A460843B9
:1043C00013D0114653EA010019D0C8F140025046FB
:1043D000FFF777FF05460E46504659464246FFF71F
:1043E00061FF084305D0012004E020463946BDE8BE
:1043F000F08D0020054346EAE0762C4337430A98C7
:104400006305E40AA0EB08000022FD0A44EA4754D1
:104410000A3002D500200146E9E70105101969417B
:10442000DDE9084500196941BDE8F04DA2E770B526
:1044300021F0004303430CD0C1F30A550024D5EB0F
:10444000040564EB0403D617AD1AB34102DB002068
:10445000014670BD201841EB025170BD2DE9F04DB1
:1044600000231A461B1A8A4103DB00200146BDE8DF
:10447000F08DC1F30A52C1F3130141F480154FF0DE
:10448000000BD10702D100186D41521E00270446CF
:1044900040F2FF11384601EB620A3E468046024672
:1044A00000204FF48011FFF70CFFC2197141BB18B7
:1044B00046EB0100B4EB030C75EB000C04D3E41ADB
:1044C00065EB000517460E46241908F101006D4101
:1044D00080463428E3DDF91946EB0600091BA841A4
:1044E00003D24FF0FF32134601E0002213461BEBCC
:1044F000070046EB0A51BDE8F04DFFF73BBF000057
:1045000030B5041E71F1000404DB4FF0004440425A
:1045100064EB0101141E73F1000405DB1C464FF02F
:104520000043524263EB0403994208BF904230BDFE
:10453000064C074D06E0E06840F0010394E80700F0
:1045400098471034AC42F6D3FBF7D4FD885B0008E3
:10455000A85B000870B5C1F30A5201F000450024C1
:10456000C1F3130140F2FF3341F480119A4201DAA2
:10457000002070BD40F233439A42A2F2334203DC82
:104580005242FFF79EFE00E090402C43F1D04042A3
:1045900070BD30B58C1810F8012B12F00F0301D14B
:1045A00010F8013B120906D110F8012B03E010F8B6
:1045B000015B01F8015B5B1EF9D101E001F8013BF1
:1045C000521EFBD1A142E6D3002030BD490050EA83
:1045D000C12018BF04204A0D18BF40F0010040F26E
:1045E000FF72B2EB515F08BF40F00200012808BF24
:1045F000052070472DE9F74F144694B00021C4E917
:1046000002111599079121F00045C9498D4206DC38
:104610001599C4E9000117B00020BDE8F08FC54925
:10462000DFF814A3A9423CDD0799C44E0029C44F0A
:10463000C44A1599534619DDFFF79CFC554506D031
:10464000C14AC24BFFF796FCC4E900010AE04FF0F3
:10465000D352BE4BFFF78EFC32463B46FFF78AFC37
:10466000C4E9000117B00120BDE8F08FFFF7E1FBBE
:10467000554506D0B44AB54BFFF7DBFBC4E9000152
:104680000AE04FF0D352B14BFFF7D3FB32463B4623
:10469000FFF7CFFBC4E9000117B04FF0FF30BDE8D2
:1046A000F08FAB49A942159978DB21F00041834690
:1046B0008846A84AA84BFFF763FC0022A74BFFF7E8
:1046C000B8FBFFF747FF0990FFF744FD06460F468A
:1046D0009C4A5346FFF754FC43465A46FFF74DFCAD
:1046E00080468A46984A994B30463946FFF748FC3F
:1046F0002A0D01250B9242465346FFF73EFC032D3F
:10470000C4E9000139D00B98C1F30A51401A05EBF6
:1047100045111139814230DA9148C346784400EBA3
:104720000510CDF80CA00C90D0E900233046394696
:10473000FFF726FC02460B46049106905846039963
:10474000FFF718FC80468A4602460B4658460399F6
:10475000FFF710FC049B069AFFF70CFC83460C98AD
:1047600003913946D0E902233046FFF709FC5A4647
:10477000039BFFF7FFFB6D1CBDE707980028A2BF56
:10478000099817B0BDE8F08F616881F00041616061
:10479000099817B04042BDE8F08FFFE784461598AE
:1047A000C1F31301C0F30A50A0F2F5304FEA6018CC
:1047B00000F01F06C6F1200013900020069007901D
:1047C00041F4801E05206D4676B1664A08EB000173
:1047D0007A4452F8213002EB8101B3404A681399C0
:1047E00022FA01F1194305E05F4908EB0002794420
:1047F00051F82210A1FB0E27A1FB0C131A449A4278
:1048000034BF0123002303EB070A05EB8003D3E940
:1048100001B70F448F4234BF0121002193448B44E0
:1048200011B1934502D903E0934501D2012100E083
:104830000021C3E901B7514445F82010011EA0F141
:104840000100C1DC0298059F00F10050800F12901A
:104850000298DDE903568000FFF77CFC834628467A
:104860000D91FFF788FC6FF01D02FFF7E0FDCDE929
:104870000E013046FFF77FFC6FF03D02FFF7D7FDDA
:1048800080468A463846FFF776FC6FF05D02FFF7F8
:10489000CEFD0746424653461191FFF7CAFADDE9BD
:1048A0000E23FFF7C6FA5A460D9BFFF7C2FA002502
:1048B0000E465A4628460D9BFFF75CFBDDE90E23AA
:1048C000FFF758FB42465346FFF754FB3A46119B0D
:1048D000FFF753FBDFF898A0244A5346FFF750FB3D
:1048E00007468846234A244B31462846FFF748FBB3
:1048F0003A464346FFF79DFA074688464FF0A842DE
:10490000534631462846FFF73BFB3A464346FFF7FE
:1049100090FA159A12F0004F04D0129A81F00041DB
:1049200052421292C4E90001129817B0BDE8F08F0C
:10493000FB21E93F7CD90240FB21F93F7370032E34
:104940008A19A33B000040543163621A61B4D03D20
:10495000FB21394183C8C96D305FE43F0000E03F6F
:1049600078130000F4120000D6120000182D4454F1
:10497000FB21F93D3326A611460B113C2DE9FF4DD5
:1049800021F0004807460C46B8F1795F08DAFFF7D6
:10499000E1FD002801BF0020324904B0BDE8F08DE0
:1049A0003A46234610461946FFF7EAFA05460246FC
:1049B0002D480E460B460621784400F05DF82A4645
:1049C0003346FFF7DDFADDE9022382468B4638469F
:1049D0002146FFF7D5FA04460F4652465B46284665
:1049E0003146FFF7CDFA22463B46FFF7C3FA0746AA
:1049F0008A464FF0FF3228463146FFF718FD1B4A22
:104A000090450ADA3A465346FFF7B4FA04B000225A
:104A1000BDE8F04D134BFFF7B0BA154A4245A8BFA9
:104A2000A8F500154FF00004B8BF124D22462B46E2
:104A3000FFF7A0FA0646884622462B460020094981
:104A4000FFF798FA04460D463A465346304641462B
:104A5000FFF790FA04B022462B46BDE8F04DFFF771
:104A60008CBA00000000F03FA41000003333D33FA5
:104A70000000E93F0000D23F2DE9F0414F1E00EB5E
:104A8000C7010446D1E9000115461E4637F006026B
:104A90000DD02A463346FFF773FA7F1E04EBC70397
:104AA000D3E90023FFF7C5F937F00602F1D1022F51
:104AB00025D0042F13D0062F18BFBDE8F0812A4659
:104AC0003346FFF75DFAD4E90A23FFF7B2F92A4625
:104AD0003346FFF755FAD4E90823FFF7AAF92A4627
:104AE0003346FFF74DFAD4E90623FFF7A2F92A4629
:104AF0003346FFF745FAD4E90423FFF79AF92A462B
:104B00003346FFF73DFAD4E90223FFF792F92A462C
:104B10003346FFF735FAD4E90023BDE8F041FFF74B
:104B200088B900002DE9FF4D054621F0004084B012
:104B30000C46B0F1795F0BDA2846FFF747FD0428F1
:104B400008BF00F07FF8284608B02146BDE8F08D88
:104B50002A460B461046FFF713FA06460F462A462A
:104B60002346FFF70DFA804626488A4632463B46E2
:104B700005217844FFF780FF83461098029160B3C7
:104B8000214A224B40465146FFF7FAF9CDE9000190
:104B90005A4640465146029BFFF7F2F98246884644
:104BA000DDE906014FF0FF32FFF741FC5246434674
:104BB000FFF7E0F932463B46FFF7E2F9DDE906236D
:104BC000FFF7D8F9DDE90023FFF7D4F908B02A464A
:104BD0002346BDE8F04DFFF7D0B90B465A463046A4
:104BE0003946FFF7CDF9084A084BFFF722F942464C
:104BF0005346FFF7C5F908B02A462346BDE8F04DF5
:104C0000FFF717B9EA0F0000495555555555C5BF6F
:104C10000022134610460149FFF724BA0000F03F76
:104C20000122FFF704BCFFF704B900221346104627
:104C30001146FFF717BA40F2013200204FF0E04171
:104C4000FFF7F5BB024A00201107FFF7F0BB000099
:104C500001FDFFFF02E008C8121F08C1002AFAD1B7
:104C600070477047002001E001C1121F002AFBD1EC
:104C70007047000001490860704700009001002063
:104C80002DE9F84F04460D4621F00040009173498C
:104C9000814211DC7249884201DC06D12CB12046E8
:104CA0002946BDE8F84FFFF7BBBF6E48002DCCBFCB
:104CB0006D496E49BDE8F88F6D49814211DD6D493E
:104CC0008142D8BF4FF0FF366DDD20462946FFF701
:104CD0007DFC042808BFFFF7B5FF20462946BDE844
:104CE000F88F6549654F25F00045814233DD644901
:104CF000814219DD002632464FF080432046294686
:104D0000FFF797F880468A46012220462946FFF79A
:104D10008EFB00223B46FFF72DF942465346FFF734
:104D2000A1F904460D463EE001260022BA463B4664
:104D300020462946FFF77DF880460F46002253465D
:104D400020462946FFF716F942463B46FFF78AF907
:104D500004460D4627E04B4981421BDDDFF828A1C0
:104D600002260022534620462946FFF709F9002271
:104D70003B46FFF75EF880460F460022534620462A
:104D80002946FFF7F7F842463B46FFF76BF9044622
:104D90000D4608E0032622462B4600203B49FFF73C
:104DA00061F904460D4622462B4610461946FFF788
:104DB000E7F88B46824602460B46FFF7E1F80746C6
:104DC0000246334888460B4606217844FFF754FED6
:104DD00052465B46FFF7D4F882462E488B463A4649
:104DE000434605217844FFF747FE3A464346FFF71E
:104DF000C7F802460B46002E504659460CDAFFF71C
:104E000018F822462B46FFF7BBF801B022462B4686
:104E1000BDE8F04FFFF7B1B8FFF70BF822462B467D
:104E2000FFF7AEF81C4A7A4402EBC603D3E900232D
:104E3000FFF7A0F822462B46FFF79CF8174A7A4462
:104E400002EBC603D3E90023FFF797F8009A002A84
:104E5000B8BF81F00041BDE8F88F000000001044A9
:104E60000000F07F182D4454FB21F93FFB21F9BFCE
:104E70000000DC3F0000203E0000F33F0000F03F58
:104E80000000E63F008003400000F83F0000F0BF54
:104E9000DA0B0000980B0000360B0000FE0A000041
:104EA00000B5244B21F0004287B09A42DCBF0022BB
:104EB000134629DD204B9A4208D140B94FF001003A
:104EC000FFF7D8FEFFF7B1FE07B000BD03DBFFF729
:104ED000A7FE07B000BD02AAFFF78CFB10F003018C
:104EE00004BF0DF1080C9CE80F000DD00120012932
:104EF0000ED0022914D00DF1080C00909CE80F0090
:104F0000FFF710FE07B000BDFFF738FD07B000BD8A
:104F10000DF1080C00909CE80F00FFF703FE05E080
:104F20000DF1080C9CE80F00FFF728FD07B081F099
:104F3000004100BDFB21E93F0000F07F2DE9F04D6D
:104F400016460F4694B01C4621F0004123F0004263
:104F5000002814BF4FF0010C4FF0000C0CEB470C75
:104F6000FE4B0CEB03054FEA630C65452BD3350074
:104F700018BF012505EB44051D44F94B9D4222D382
:104F8000F84B52EA060C02D09F4205D148B914B042
:104F900000201946BDE8F08D002808BF4FF0000C36
:104FA00001D04FF0010C0CEB470313F5001F0AD89A
:104FB000002E14BF4FF0010C4FF0000C0CEB44031B
:104FC00013F5001F07D914B0324623463946BDE811
:104FD000F04DFFF728BEDFF890834FF0000A002F56
:104FE000B8BF424523DAE14B9A42A8BF4FF0020A0C
:104FF0001DDADC4B93421ADCDD4B03EB2253142BFE
:1050000008DDC3F1340C26FA0CF303FA0CFCB445AA
:105010000DD108E05EB9C3F1140C22FA0CF303FAC7
:105020000CFC944503D103F00103C3F1020A51EAD9
:1050300000031BD1002C19DA002F18BFBAF1020FA0
:1050400002D0BAF1010F07D00220FFF713FE14B00F
:10505000BDE8F04DFFF7DCBD0220FFF70BFEFFF7C8
:10506000D7FD14B081F00041BDE8F08D330070D160
:10507000424525D107F1804212F5801201BF002878
:105080000020B84914B008BFBDE8F08DB54888428B
:1050900007DC002CA1BF1846214614B0BDE8F08DF6
:1050A00007E0002CBFBF184684F0004114B0BDE8F3
:1050B000F08DB0497944D1E9000114B0BDE8F08D1C
:1050C000DFF8A0C262452AD1002C24DA39B141456B
:1050D00017D1002804BF002002461CD106E040B1D1
:1050E0000220FFF7C7FDFFF7A6FD0A46394600F08C
:1050F000D7BA9D4A394614B0002062F31E01BDE8BC
:10510000F08D08DA14B03B46BDE8F04D02460020B1
:105110006146FEF7A7BF14B03946BDE8F08D4145A2
:1051200017DAB4F1804F0CD0A4F10053B3F1FF5360
:105130000FD13B1E0DDB14B01946BDE8F04D00F059
:10514000D9BB3B4614B00246BDE8F04D1946FEF708
:1051500017BF050027F000433AD1E1B1414537D1EF
:10516000002F06DD002CA1BF0020414614B0BDE891
:10517000F08D002F01DD002C1FDB002F16DA002C34
:1051800014DBBAF1010F4FF0000014BF76497A49E1
:1051900014B0BDE8F08DBAF1020F18BF002F0CD08B
:1051A000BAF1010F09D1002F07DA0BE0002FB8BFC9
:1051B000002C0DDABAF1010F04D0002014B0014622
:1051C000BDE8F08D14B000204FF00041BDE8F08D37
:1051D0004FF0010808EBE77CCDF814C05CEA0A0C3C
:1051E0000DD0DFF898C162457EDDDFF894C1654BD4
:1051F000624512DD8B420ADB002C18DB23E0012024
:10520000FFF738FD14B0BDE8F04DFFF70EBD554A6D
:105210008A4202DC002C0ADC15E0994202DA002CFA
:1052200011DA04E04F4B994219DD002C0BDD02200E
:10523000FFF720FDFFF7FFFC4B4A14B061F31E029D
:105240001146BDE8F08D0220FFF714FDFFF7FAFCD0
:10525000444A14B061F31E021146BDE8F08D0022ED
:105260003946FEF787FE07460D466FF00102FFF74D
:10527000DEF84FF05532444BFEF77FFE3A462B46A0
:10528000FEF77EFE0022414BFEF777FE80468B46FE
:105290003A462B4610461946FEF772FE42465B46DA
:1052A000FEF76EFE88460E904FF0C042384B3846EF
:1052B0002946FEF765FE83460091364A344B414647
:1052C0000E98FEF75DFE80460191334A334B384617
:1052D0002946FEF755FE4246019BFEF74BFE0D4662
:1052E00002460B460C9000E011E058460099FEF78C
:1052F000A0FD002788465A463846009BFEF73AFE36
:105300002B460C9AFEF739FE024600F079B90020D0
:10531000B1F5801F07DA352228461946FFF787F8CE
:1053200005466FF0340000EB2150A0F2FF300190F1
:10533000C1F3130040F07F6141F0405102911849E0
:105340008842D8BF4FF0000B35DD16498142C8BFF7
:105350004FF0010B2FDC4FF0000B25E0FFFF1F008B
:10536000FFFF0F000000F03F0000F07F000040430F
:1053700001FCFFFFD80900000000F0FF0000E04141
:105380000000F043FFFFEF3F5555D53F0000E03FE1
:105390004715F73FFE822B6544DF5DF80BAE543EA8
:1053A0008E9803007AB60B000198401C0190029879
:1053B000A0F580100290FF480299784400EBCB00E2
:1053C0000991D0E9002328460B931292FEF7D2FDF3
:1053D00000910A9028460B9B129A0999FEF729FD25
:1053E00002460B460020F449FEF73CFECDE90C01D5
:1053F0000B46024600990A98FEF7C2FD0690EF4858
:105400008846002778440299006810904FF00050B9
:1054100040EA610000EB8B4000F5002102910B9BFC
:10542000129A1098FEF7A6FD2A46099BFEF7A5FDE5
:105430003A464346FEF7A4FD08911290384641468D
:10544000029B109AFEF79CFD009B0A9AFEF795FDC1
:10545000089B129AFEF78EFDDDE90C23FEF790FD06
:105460000B91069A1290434610461946FEF788FDA6
:1054700005460246D2480B460A9106217844FFF7BA
:10548000FBFA0A9B2A460891029010461946FEF73D
:1054900077FD089B029AFEF773FD05460991434686
:1054A00038461946069AFEF7C4FC0B9B129AFEF783
:1054B00067FD2A46099BFEF7BCFCCDE908013A4688
:1054C000434610461946FEF75BFD0A910022BD4B8C
:1054D0000090FEF7AEFCDDE90823FEF7AAFC0D46BE
:1054E0003A46B84B3846FEF745FD0A9B009AFEF750
:1054F00041FDDDE90823FEF740FDCDE908013A460C
:105500002B4610464146FEF73BFD00910A90DDE92F
:1055100008014346069AFEF733FD069088462B465F
:105520003A460B991298FEF72BFD4346069AFEF772
:1055300080FC80460B4602460D9100990A98FEF7C2
:1055400078FC00200F460546009B0A9AFEF712FDE4
:1055500042460D9BFEF711FD88460E904FF06042CB
:10556000994B28463946FEF70BFD02910090974A69
:10557000954B41460E98FEF703FD80460391944AF1
:10558000944B28463946FEF7FBFC4246039BFEF748
:1055900050FC914A7A4402EBCB03D3E90023FEF797
:1055A00048FC054607910198FEF7D4FD0C90039145
:1055B0002A46079B02990098FEF73BFC874A7A44EB
:1055C00002EBCB03D3E9002393460193FEF731FCB2
:1055D000039B0C9AFEF72DFC002788463846039B58
:1055E0000C9AFEF7C7FC5A46019BFEF7C3FC029BD0
:1055F000009AFEF7BFFC2A46079BFEF7BEFC024658
:105600000020069005986C4DAAF10103184301D1C2
:10561000734D069000200B46049030462146FEF75D
:10562000AFFC82468B46234630461946049AFEF765
:10563000A1FC3A464346FEF7A3FC52465B46FEF702
:10564000F8FB06468A463A46434621460498FEF74A
:1056500097FC04460F4632465346FEF7EAFB614A82
:105660008B46914221DBABEB020353EA000210D1DF
:1056700022463B46FEF77EFC804603915A4A5B4B2E
:1056800030465146FEF7D5FB4246039BFEF738FFF6
:1056900027D20220FFF7EEFAFFF7CDFA0A46294695
:1056A00014B062F31E01BDE8F08D514B2BF00042A7
:1056B0009A4216D34F4A0BEB020353EA000208D179
:1056C00022463B46FEF756FC32465346FEF718FF8D
:1056D00007D80220FFF7CEFAFFF7B4FA0A462946A8
:1056E000DEE72BF000404449444A01EB20514FF0E3
:1056F0000008824223DA481C4FF4801121FA00F09E
:1057000058443F4AC0F30A517A443E4BA1F2FF315C
:10571000CB4020EA0303C0F3130040F4801CC1F126
:10572000140012682CFA00F8BBF1000FB8BFC8F1E2
:10573000000820463946FEF71DFC04460F46224667
:105740003B4630465146FEF774FB4FF0000B5A467D
:105750002D4B58460391FEF713FC00910A902B4AFB
:105760002B4B58460399FEF70BFC049102902246FE
:105770003B4658460399FEF7FDFB32465346FEF77B
:10578000FCFB244A244BFEF7FBFB049B029AFEF72A
:1057900050FB07468A46009B0A9AFEF74AFB0446DE
:1057A0000E46009B0A9AFEF7E5FB3A465346FEF783
:1057B000E4FB33E01A0600000000F03F880600001A
:1057C000880500000000084009C7EE3FFD033ADCF1
:1057D000F5015B14E02F3EBE6004000026040000CB
:1057E0000000F0BF00009040FE822B654715973CFB
:1057F00000CC904000346F3F01FCFFFF0000E03F11
:1058000084030000FFFF0F00432EE63F396CA80C15
:10581000615C20BEEF39FAFE422EE63F0746224683
:1058200033460F9110461946FEF7AAFB83460246FF
:105830002E488A460B4605217844FFF71DF95A4643
:105840005346FEF79DFB22463346FEF796FB824603
:105850008B463A46204631460F9BFEF791FB3A466F
:105860000F9BFEF7E6FA0F460A9000224FF08043A6
:1058700050465946FEF77EFB0391009052465B4628
:1058800020463146FEF77CFB039B009AFEF7EAFBBD
:105890003B460A9AFEF76EFB22463346FEF76AFB4A
:1058A0000022134BFEF769FB0E46044601EB08513C
:1058B0000815002810DC424620463146FEF7B7FDA9
:1058C000FEF784FE042808BFFFF7BCF942462046D5
:1058D0003146FEF7ACFD044606980B4614B022464E
:1058E0002946BDE8F04DFEF74BBB0000FC0100006F
:1058F0000000F03F2DE9F04106460F46FEF7AEFDF1
:1059000004000D4618BF0120284320F00040C0F1DC
:105910007F6000F1E040C00F0ED0301C18BF0120A6
:10592000384320F00040C0F17F6000F1E040C00F3C
:1059300004BF0120FFF79EF920462946BDE8F0810B
:105940004FBB610567ACDD3F182D4454FB21E93F97
:105950009BF681D20B73EF3F182D4454FB21F93F86
:10596000E2652F227F2B7A3C075C143326A6813C0C
:10597000BDCBF07A8807703C075C143326A6913CB7
:10598000C4EB98999999C9BF711623FEC671BCBF23
:105990006D9A74AFF2B0B3BF9AFDDE522DDEADBF8B
:1059A0002F6C6A2C44B4A2BF0D5555555555D53FA3
:1059B000FF8300922449C23F6E204CC5CD45B73FBE
:1059C000513DD0A0660DB13FEB0D76244B7BA93F36
:1059D00011DA22E33AAD903F000000000000F03FF2
:1059E000000000000000F83F000000000000000080
:1059F0000000004003B8E23F00000000000000008B
:105A000006D0CF43EBFD4C3E033333333333E33F18
:105A1000FFAB6FDBB66DDB3F4D268F515555D53F44
:105A200001411DA96074D13F65DBC9934A86CD3F12
:105A3000EF4E454A287ECA3F3E5555555555C53F00
:105A400093BDBE166CC166BF2CDE25AF6A56113FF2
:105A5000F16BD2C541BDBBBED0A4BE726937663EF4
:105A60004C5555555555A53F7751C1166CC156BF7C
:105A70009015CB19A001FA3EAD529C804F7E92BE8C
:105A8000C4B1B4BD9EEE213ED43888BEE9FAA8BDAB
:105A9000000000000000000000004054FB21F93F1E
:105AA0003163621A61B4D03D0000601A61B4D03D28
:105AB0007370032E8A19A33B0000002E8A19A33BA2
:105AC000C14920259A837B390000000000000000B6
:105AD0006E83F9A22915444ED15727FCC0DD34F559
